{
  "_format": "hh-sol-artifact-1",
  "contractName": "StoraChainStorage",
  "sourceName": "contracts/StoraChainStorage.sol",
  "abi": [
    {
      "anonymous": false,
      "inputs": [
        {
          "indexed": true,
          "internalType": "address",
          "name": "uploader",
          "type": "address"
        },
        {
          "indexed": false,
          "internalType": "string",
          "name": "cid",
          "type": "string"
        },
        {
          "indexed": false,
          "internalType": "uint256",
          "name": "timestamp",
          "type": "uint256"
        }
      ],
      "name": "FileDeleted",
      "type": "event"
    },
    {
      "anonymous": false,
      "inputs": [
        {
          "indexed": true,
          "internalType": "address",
          "name": "uploader",
          "type": "address"
        },
        {
          "indexed": false,
          "internalType": "string",
          "name": "cid",
          "type": "string"
        },
        {
          "indexed": false,
          "internalType": "string",
          "name": "fileName",
          "type": "string"
        },
        {
          "indexed": false,
          "internalType": "uint256",
          "name": "fileSize",
          "type": "uint256"
        },
        {
          "indexed": false,
          "internalType": "uint256",
          "name": "timestamp",
          "type": "uint256"
        }
      ],
      "name": "FileUploaded",
      "type": "event"
    },
    {
      "inputs": [
        {
          "internalType": "uint256",
          "name": "_index",
          "type": "uint256"
        }
      ],
      "name": "deleteFile",
      "outputs": [],
      "stateMutability": "nonpayable",
      "type": "function"
    },
    {
      "inputs": [],
      "name": "getMyFileCount",
      "outputs": [
        {
          "internalType": "uint256",
          "name": "",
          "type": "uint256"
        }
      ],
      "stateMutability": "view",
      "type": "function"
    },
    {
      "inputs": [],
      "name": "getMyFiles",
      "outputs": [
        {
          "components": [
            {
              "internalType": "string",
              "name": "cid",
              "type": "string"
            },
            {
              "internalType": "string",
              "name": "fileName",
              "type": "string"
            },
            {
              "internalType": "uint256",
              "name": "fileSize",
              "type": "uint256"
            },
            {
              "internalType": "uint256",
              "name": "timestamp",
              "type": "uint256"
            },
            {
              "internalType": "address",
              "name": "uploader",
              "type": "address"
            }
          ],
          "internalType": "struct StoraChainStorage.FileRecord[]",
          "name": "",
          "type": "tuple[]"
        }
      ],
      "stateMutability": "view",
      "type": "function"
    },
    {
      "inputs": [],
      "name": "totalFilesStored",
      "outputs": [
        {
          "internalType": "uint256",
          "name": "",
          "type": "uint256"
        }
      ],
      "stateMutability": "view",
      "type": "function"
    },
    {
      "inputs": [
        {
          "internalType": "string",
          "name": "_cid",
          "type": "string"
        },
        {
          "internalType": "string",
          "name": "_fileName",
          "type": "string"
        },
        {
          "internalType": "uint256",
          "name": "_fileSize",
          "type": "uint256"
        }
      ],
      "name": "uploadFile",
      "outputs": [],
      "stateMutability": "nonpayable",
      "type": "function"
    }
  ],
  "bytecode": "0x608060405234801561001057600080fd5b506115e8806100206000396000f3fe608060405234801561001057600080fd5b50600436106100575760003560e01c80632419c0db1461005c57806363ec28ce1461007857806390a4b0df14610096578063c5b42006146100b4578063c6d8efc1146100d0575b600080fd5b61007660048036038101906100719190610aef565b6100ee565b005b61008061035d565b60405161008d9190610b89565b60405180910390f35b61009e610363565b6040516100ab9190610db2565b60405180910390f35b6100ce60048036038101906100c99190610dd4565b61058c565b005b6100d86108b9565b6040516100e59190610b89565b60405180910390f35b6000835111610132576040517f08c379a000000000000000000000000000000000000000000000000000000000815260040161012990610e5e565b60405180910390fd5b6000825111610176576040517f08c379a000000000000000000000000000000000000000000000000000000000815260040161016d90610eca565b60405180910390fd5b600081116101b9576040517f08c379a00000000000000000000000000000000000000000000000000000000081526004016101b090610f5c565b60405180910390fd5b60006040518060a001604052808581526020018481526020018381526020014281526020013373ffffffffffffffffffffffffffffffffffffffff1681525090506000803373ffffffffffffffffffffffffffffffffffffffff1673ffffffffffffffffffffffffffffffffffffffff16815260200190815260200160002081908060018154018082558091505060019003906000526020600020906005020160009091909190915060008201518160000190816102779190611188565b50602082015181600101908161028d9190611188565b50604082015181600201556060820151816003015560808201518160040160006101000a81548173ffffffffffffffffffffffffffffffffffffffff021916908373ffffffffffffffffffffffffffffffffffffffff1602179055505050600160008154809291906102fe90611289565b91905055503373ffffffffffffffffffffffffffffffffffffffff167faf5bcb532dbd747405fc9565ee753f1adf1adda2ee45335b4039c1a04eb4b09f8585854260405161034f949392919061130a565b60405180910390a250505050565b60015481565b60606000803373ffffffffffffffffffffffffffffffffffffffff1673ffffffffffffffffffffffffffffffffffffffff168152602001908152602001600020805480602002602001604051908101604052809291908181526020016000905b8282101561058357838290600052602060002090600502016040518060a00160405290816000820180546103f690610fab565b80601f016020809104026020016040519081016040528092919081815260200182805461042290610fab565b801561046f5780601f106104445761010080835404028352916020019161046f565b820191906000526020600020905b81548152906001019060200180831161045257829003601f168201915b5050505050815260200160018201805461048890610fab565b80601f01602080910402602001604051908101604052809291908181526020018280546104b490610fab565b80156105015780601f106104d657610100808354040283529160200191610501565b820191906000526020600020905b8154815290600101906020018083116104e457829003601f168201915b5050505050815260200160028201548152602001600382015481526020016004820160009054906101000a900473ffffffffffffffffffffffffffffffffffffffff1673ffffffffffffffffffffffffffffffffffffffff1673ffffffffffffffffffffffffffffffffffffffff1681525050815260200190600101906103c3565b50505050905090565b60008060003373ffffffffffffffffffffffffffffffffffffffff1673ffffffffffffffffffffffffffffffffffffffff168152602001908152602001600020905080805490508210610614576040517f08c379a000000000000000000000000000000000000000000000000000000000815260040161060b906113a9565b60405180910390fd5b6000818381548110610629576106286113c9565b5b9060005260206000209060050201600001805461064590610fab565b80601f016020809104026020016040519081016040528092919081815260200182805461067190610fab565b80156106be5780601f10610693576101008083540402835291602001916106be565b820191906000526020600020905b8154815290600101906020018083116106a157829003601f168201915b5050505050905081600183805490506106d791906113f8565b815481106106e8576106e76113c9565b5b9060005260206000209060050201828481548110610709576107086113c9565b5b90600052602060002090600502016000820181600001908161072b9190611442565b50600182018160010190816107409190611442565b5060028201548160020155600382015481600301556004820160009054906101000a900473ffffffffffffffffffffffffffffffffffffffff168160040160006101000a81548173ffffffffffffffffffffffffffffffffffffffff021916908373ffffffffffffffffffffffffffffffffffffffff160217905550905050818054806107d0576107cf61152a565b5b6001900381819060005260206000209060050201600080820160006107f59190610902565b6001820160006108059190610902565b600282016000905560038201600090556004820160006101000a81549073ffffffffffffffffffffffffffffffffffffffff02191690555050905560006001541115610864576001600081548092919061085e90611559565b91905055505b3373ffffffffffffffffffffffffffffffffffffffff167f4f290849018eb780affafba63563006086546149769e7b527f0e61c4f282de0782426040516108ac929190611582565b60405180910390a2505050565b60008060003373ffffffffffffffffffffffffffffffffffffffff1673ffffffffffffffffffffffffffffffffffffffff16815260200190815260200160002080549050905090565b50805461090e90610fab565b6000825580601f10610920575061093f565b601f01602090049060005260206000209081019061093e9190610942565b5b50565b5b8082111561095b576000816000905550600101610943565b5090565b6000604051905090565b600080fd5b600080fd5b600080fd5b600080fd5b6000601f19601f8301169050919050565b7f4e487b7100000000000000000000000000000000000000000000000000000000600052604160045260246000fd5b6109c68261097d565b810181811067ffffffffffffffff821117156109e5576109e461098e565b5b80604052505050565b60006109f861095f565b9050610a0482826109bd565b919050565b600067ffffffffffffffff821115610a2457610a2361098e565b5b610a2d8261097d565b9050602081019050919050565b82818337600083830152505050565b6000610a5c610a5784610a09565b6109ee565b905082815260208101848484011115610a7857610a77610978565b5b610a83848285610a3a565b509392505050565b600082601f830112610aa057610a9f610973565b5b8135610ab0848260208601610a49565b91505092915050565b6000819050919050565b610acc81610ab9565b8114610ad757600080fd5b50565b600081359050610ae981610ac3565b92915050565b600080600060608486031215610b0857610b07610969565b5b600084013567ffffffffffffffff811115610b2657610b2561096e565b5b610b3286828701610a8b565b935050602084013567ffffffffffffffff811115610b5357610b5261096e565b5b610b5f86828701610a8b565b9250506040610b7086828701610ada565b9150509250925092565b610b8381610ab9565b82525050565b6000602082019050610b9e6000830184610b7a565b92915050565b600081519050919050565b600082825260208201905092915050565b6000819050602082019050919050565b600081519050919050565b600082825260208201905092915050565b60005b83811015610c0a578082015181840152602081019050610bef565b60008484015250505050565b6000610c2182610bd0565b610c2b8185610bdb565b9350610c3b818560208601610bec565b610c448161097d565b840191505092915050565b610c5881610ab9565b82525050565b600073ffffffffffffffffffffffffffffffffffffffff82169050919050565b6000610c8982610c5e565b9050919050565b610c9981610c7e565b82525050565b600060a0830160008301518482036000860152610cbc8282610c16565b91505060208301518482036020860152610cd68282610c16565b9150506040830151610ceb6040860182610c4f565b506060830151610cfe6060860182610c4f565b506080830151610d116080860182610c90565b508091505092915050565b6000610d288383610c9f565b905092915050565b6000602082019050919050565b6000610d4882610ba4565b610d528185610baf565b935083602082028501610d6485610bc0565b8060005b85811015610da05784840389528151610d818582610d1c565b9450610d8c83610d30565b925060208a01995050600181019050610d68565b50829750879550505050505092915050565b60006020820190508181036000830152610dcc8184610d3d565b905092915050565b600060208284031215610dea57610de9610969565b5b6000610df884828501610ada565b91505092915050565b600082825260208201905092915050565b7f4349442063616e6e6f7420626520656d70747900000000000000000000000000600082015250565b6000610e48601383610e01565b9150610e5382610e12565b602082019050919050565b60006020820190508181036000830152610e7781610e3b565b9050919050565b7f46696c656e616d652063616e6e6f7420626520656d7074790000000000000000600082015250565b6000610eb4601883610e01565b9150610ebf82610e7e565b602082019050919050565b60006020820190508181036000830152610ee381610ea7565b9050919050565b7f46696c652073697a65206d7573742062652067726561746572207468616e207a60008201527f65726f0000000000000000000000000000000000000000000000000000000000602082015250565b6000610f46602383610e01565b9150610f5182610eea565b604082019050919050565b60006020820190508181036000830152610f7581610f39565b9050919050565b7f4e487b7100000000000000000000000000000000000000000000000000000000600052602260045260246000fd5b60006002820490506001821680610fc357607f821691505b602082108103610fd657610fd5610f7c565b5b50919050565b60008190508160005260206000209050919050565b60006020601f8301049050919050565b600082821b905092915050565b60006008830261103e7fffffffffffffffffffffffffffffffffffffffffffffffffffffffffffffffff82611001565b6110488683611001565b95508019841693508086168417925050509392505050565b6000819050919050565b600061108561108061107b84610ab9565b611060565b610ab9565b9050919050565b6000819050919050565b61109f8361106a565b6110b36110ab8261108c565b84845461100e565b825550505050565b600090565b6110c86110bb565b6110d3818484611096565b505050565b5b818110156110f7576110ec6000826110c0565b6001810190506110d9565b5050565b601f82111561113c5761110d81610fdc565b61111684610ff1565b81016020851015611125578190505b61113961113185610ff1565b8301826110d8565b50505b505050565b600082821c905092915050565b600061115f60001984600802611141565b1980831691505092915050565b6000611178838361114e565b9150826002028217905092915050565b61119182610bd0565b67ffffffffffffffff8111156111aa576111a961098e565b5b6111b48254610fab565b6111bf8282856110fb565b600060209050601f8311600181146111f257600084156111e0578287015190505b6111ea858261116c565b865550611252565b601f19841661120086610fdc565b60005b8281101561122857848901518255600182019150602085019450602081019050611203565b868310156112455784890151611241601f89168261114e565b8355505b6001600288020188555050505b505050505050565b7f4e487b7100000000000000000000000000000000000000000000000000000000600052601160045260246000fd5b600061129482610ab9565b91507fffffffffffffffffffffffffffffffffffffffffffffffffffffffffffffffff82036112c6576112c561125a565b5b600182019050919050565b60006112dc82610bd0565b6112e68185610e01565b93506112f6818560208601610bec565b6112ff8161097d565b840191505092915050565b6000608082019050818103600083015261132481876112d1565b9050818103602083015261133881866112d1565b90506113476040830185610b7a565b6113546060830184610b7a565b95945050505050565b7f496e646578206f7574206f6620626f756e647300000000000000000000000000600082015250565b6000611393601383610e01565b915061139e8261135d565b602082019050919050565b600060208201905081810360008301526113c281611386565b9050919050565b7f4e487b7100000000000000000000000000000000000000000000000000000000600052603260045260246000fd5b600061140382610ab9565b915061140e83610ab9565b92508282039050818111156114265761142561125a565b5b92915050565b60008154905061143b81610fab565b9050919050565b818103611450575050611528565b6114598261142c565b67ffffffffffffffff8111156114725761147161098e565b5b61147c8254610fab565b6114878282856110fb565b6000601f8311600181146114b657600084156114a4578287015490505b6114ae858261116c565b865550611521565b601f1984166114c487610fdc565b96506114cf86610fdc565b60005b828110156114f7578489015482556001820191506001850194506020810190506114d2565b868310156115145784890154611510601f89168261114e565b8355505b6001600288020188555050505b5050505050505b565b7f4e487b7100000000000000000000000000000000000000000000000000000000600052603160045260246000fd5b600061156482610ab9565b9150600082036115775761157661125a565b5b600182039050919050565b6000604082019050818103600083015261159c81856112d1565b90506115ab6020830184610b7a565b939250505056fea2646970667358221220ba92013607750c12e82723c87c328fecc4c0c4f8c7833b4431995eef8956d3d664736f6c63430008140033",
  "linkReferences": {},
  "deployedLinkReferences": {}
}