{
  "_format": "hh-sol-artifact-1",
  "contractName": "StoraChainStorage",
  "sourceName": "contracts/StoraChainStorage.sol",
  "abi": [
    {
      "anonymous": false,
      "inputs": [
        {
          "indexed": true,
          "internalType": "address",
          "name": "uploader",
          "type": "address"
        },
        {
          "indexed": false,
          "internalType": "string",
          "name": "cid",
          "type": "string"
        },
        {
          "indexed": false,
          "internalType": "uint256",
          "name": "timestamp",
          "type": "uint256"
        }
      ],
      "name": "FileDeleted",
      "type": "event"
    },
    {
      "anonymous": false,
      "inputs": [
        {
          "indexed": true,
          "internalType": "bytes32",
          "name": "fileHash",
          "type": "bytes32"
        },
        {
          "indexed": true,
          "internalType": "address",
          "name": "downloader",
          "type": "address"
        },
        {
          "indexed": false,
          "internalType": "uint256",
          "name": "timestamp",
          "type": "uint256"
        }
      ],
      "name": "FileDownloaded",
      "type": "event"
    },
    {
      "anonymous": false,
      "inputs": [
        {
          "indexed": true,
          "internalType": "bytes32",
          "name": "fileHash",
          "type": "bytes32"
        },
        {
          "indexed": false,
          "internalType": "string",
          "name": "cid",
          "type": "string"
        },
        {
          "indexed": true,
          "internalType": "address",
          "name": "seekerWallet",
          "type": "address"
        },
        {
          "indexed": false,
          "internalType": "address[]",
          "name": "providerWallets",
          "type": "address[]"
        },
        {
          "indexed": false,
          "internalType": "uint256",
          "name": "fileSize",
          "type": "uint256"
        },
        {
          "indexed": false,
          "internalType": "uint256",
          "name": "timestamp",
          "type": "uint256"
        }
      ],
      "name": "FileStored",
      "type": "event"
    },
    {
      "anonymous": false,
      "inputs": [
        {
          "indexed": true,
          "internalType": "address",
          "name": "uploader",
          "type": "address"
        },
        {
          "indexed": false,
          "internalType": "string",
          "name": "cid",
          "type": "string"
        },
        {
          "indexed": false,
          "internalType": "string",
          "name": "fileName",
          "type": "string"
        },
        {
          "indexed": false,
          "internalType": "uint256",
          "name": "fileSize",
          "type": "uint256"
        },
        {
          "indexed": false,
          "internalType": "uint256",
          "name": "timestamp",
          "type": "uint256"
        }
      ],
      "name": "FileUploaded",
      "type": "event"
    },
    {
      "anonymous": false,
      "inputs": [
        {
          "indexed": true,
          "internalType": "address",
          "name": "providerWallet",
          "type": "address"
        },
        {
          "indexed": false,
          "internalType": "uint256",
          "name": "amountSCT",
          "type": "uint256"
        },
        {
          "indexed": false,
          "internalType": "uint256",
          "name": "timestamp",
          "type": "uint256"
        }
      ],
      "name": "RewardDistributed",
      "type": "event"
    },
    {
      "inputs": [
        {
          "internalType": "uint256",
          "name": "_index",
          "type": "uint256"
        }
      ],
      "name": "deleteFile",
      "outputs": [],
      "stateMutability": "nonpayable",
      "type": "function"
    },
    {
      "inputs": [],
      "name": "getMyFileCount",
      "outputs": [
        {
          "internalType": "uint256",
          "name": "",
          "type": "uint256"
        }
      ],
      "stateMutability": "view",
      "type": "function"
    },
    {
      "inputs": [],
      "name": "getMyFiles",
      "outputs": [
        {
          "components": [
            {
              "internalType": "string",
              "name": "cid",
              "type": "string"
            },
            {
              "internalType": "string",
              "name": "fileName",
              "type": "string"
            },
            {
              "internalType": "uint256",
              "name": "fileSize",
              "type": "uint256"
            },
            {
              "internalType": "uint256",
              "name": "timestamp",
              "type": "uint256"
            },
            {
              "internalType": "address",
              "name": "uploader",
              "type": "address"
            }
          ],
          "internalType": "struct StoraChainStorage.FileRecord[]",
          "name": "",
          "type": "tuple[]"
        }
      ],
      "stateMutability": "view",
      "type": "function"
    },
    {
      "inputs": [
        {
          "internalType": "bytes32",
          "name": "fileHash",
          "type": "bytes32"
        },
        {
          "internalType": "address",
          "name": "downloader",
          "type": "address"
        }
      ],
      "name": "recordDownload",
      "outputs": [],
      "stateMutability": "nonpayable",
      "type": "function"
    },
    {
      "inputs": [
        {
          "internalType": "address",
          "name": "providerWallet",
          "type": "address"
        },
        {
          "internalType": "uint256",
          "name": "amountSCT",
          "type": "uint256"
        }
      ],
      "name": "recordReward",
      "outputs": [],
      "stateMutability": "nonpayable",
      "type": "function"
    },
    {
      "inputs": [
        {
          "internalType": "bytes32",
          "name": "fileHash",
          "type": "bytes32"
        },
        {
          "internalType": "string",
          "name": "cid",
          "type": "string"
        },
        {
          "internalType": "address",
          "name": "seekerWallet",
          "type": "address"
        },
        {
          "internalType": "address[]",
          "name": "providerWallets",
          "type": "address[]"
        },
        {
          "internalType": "uint256",
          "name": "fileSize",
          "type": "uint256"
        }
      ],
      "name": "storeFile",
      "outputs": [],
      "stateMutability": "nonpayable",
      "type": "function"
    },
    {
      "inputs": [],
      "name": "totalFilesStored",
      "outputs": [
        {
          "internalType": "uint256",
          "name": "",
          "type": "uint256"
        }
      ],
      "stateMutability": "view",
      "type": "function"
    },
    {
      "inputs": [
        {
          "internalType": "string",
          "name": "_cid",
          "type": "string"
        },
        {
          "internalType": "string",
          "name": "_fileName",
          "type": "string"
        },
        {
          "internalType": "uint256",
          "name": "_fileSize",
          "type": "uint256"
        }
      ],
      "name": "uploadFile",
      "outputs": [],
      "stateMutability": "nonpayable",
      "type": "function"
    }
  ],
  "bytecode": "0x608060405234801561001057600080fd5b50611f46806100206000396000f3fe608060405234801561001057600080fd5b50600436106100885760003560e01c806390a4b0df1161005b57806390a4b0df146100ff578063b863d7101461011d578063c5b4200614610139578063c6d8efc11461015557610088565b80632419c0db1461008d57806340077b15146100a957806363ec28ce146100c557806386184e2a146100e3575b600080fd5b6100a760048036038101906100a29190610ea9565b610173565b005b6100c360048036038101906100be9190610fc8565b6103e2565b005b6100cd6104e9565b6040516100da9190611017565b60405180910390f35b6100fd60048036038101906100f891906110fa565b6104ef565b005b61010761065a565b6040516101149190611389565b60405180910390f35b610137600480360381019061013291906113ab565b610883565b005b610153600480360381019061014e91906113eb565b610946565b005b61015d610c73565b60405161016a9190611017565b60405180910390f35b60008351116101b7576040517f08c379a00000000000000000000000000000000000000000000000000000000081526004016101ae90611475565b60405180910390fd5b60008251116101fb576040517f08c379a00000000000000000000000000000000000000000000000000000000081526004016101f2906114e1565b60405180910390fd5b6000811161023e576040517f08c379a000000000000000000000000000000000000000000000000000000000815260040161023590611573565b60405180910390fd5b60006040518060a001604052808581526020018481526020018381526020014281526020013373ffffffffffffffffffffffffffffffffffffffff1681525090506000803373ffffffffffffffffffffffffffffffffffffffff1673ffffffffffffffffffffffffffffffffffffffff16815260200190815260200160002081908060018154018082558091505060019003906000526020600020906005020160009091909190915060008201518160000190816102fc919061179f565b506020820151816001019081610312919061179f565b50604082015181600201556060820151816003015560808201518160040160006101000a81548173ffffffffffffffffffffffffffffffffffffffff021916908373ffffffffffffffffffffffffffffffffffffffff160217905550505060016000815480929190610383906118a0565b91905055503373ffffffffffffffffffffffffffffffffffffffff167faf5bcb532dbd747405fc9565ee753f1adf1adda2ee45335b4039c1a04eb4b09f858585426040516103d49493929190611921565b60405180910390a250505050565b6000801b8203610427576040517f08c379a000000000000000000000000000000000000000000000000000000000815260040161041e906119c0565b60405180910390fd5b600073ffffffffffffffffffffffffffffffffffffffff168173ffffffffffffffffffffffffffffffffffffffff1603610496576040517f08c379a000000000000000000000000000000000000000000000000000000000815260040161048d90611a2c565b60405180910390fd5b8073ffffffffffffffffffffffffffffffffffffffff16827f134689260d977c8820d39f35ab2a85b84776f032a8d64b2a65feaaff5490ac0f426040516104dd9190611017565b60405180910390a35050565b60015481565b6000801b8503610534576040517f08c379a000000000000000000000000000000000000000000000000000000000815260040161052b906119c0565b60405180910390fd5b60008111610577576040517f08c379a000000000000000000000000000000000000000000000000000000000815260040161056e90611a98565b60405180910390fd5b600073ffffffffffffffffffffffffffffffffffffffff168373ffffffffffffffffffffffffffffffffffffffff16036105e6576040517f08c379a00000000000000000000000000000000000000000000000000000000081526004016105dd90611b04565b60405180910390fd5b600160008154809291906105f9906118a0565b91905055508273ffffffffffffffffffffffffffffffffffffffff16857f5e5953bc72409adf1c697b6a1f96ca3998965d0e34077ff87cde9e60f1b8969e8685854260405161064b9493929190611bd3565b60405180910390a35050505050565b60606000803373ffffffffffffffffffffffffffffffffffffffff1673ffffffffffffffffffffffffffffffffffffffff168152602001908152602001600020805480602002602001604051908101604052809291908181526020016000905b8282101561087a57838290600052602060002090600502016040518060a00160405290816000820180546106ed906115c2565b80601f0160208091040260200160405190810160405280929190818152602001828054610719906115c2565b80156107665780601f1061073b57610100808354040283529160200191610766565b820191906000526020600020905b81548152906001019060200180831161074957829003601f168201915b5050505050815260200160018201805461077f906115c2565b80601f01602080910402602001604051908101604052809291908181526020018280546107ab906115c2565b80156107f85780601f106107cd576101008083540402835291602001916107f8565b820191906000526020600020905b8154815290600101906020018083116107db57829003601f168201915b5050505050815260200160028201548152602001600382015481526020016004820160009054906101000a900473ffffffffffffffffffffffffffffffffffffffff1673ffffffffffffffffffffffffffffffffffffffff1673ffffffffffffffffffffffffffffffffffffffff1681525050815260200190600101906106ba565b50505050905090565b600073ffffffffffffffffffffffffffffffffffffffff168273ffffffffffffffffffffffffffffffffffffffff16036108f2576040517f08c379a00000000000000000000000000000000000000000000000000000000081526004016108e990611c72565b60405180910390fd5b8173ffffffffffffffffffffffffffffffffffffffff167f53118bff2fb56701752f5bf54053d24fb83cec92f9f6ce664b90c38a2991caa4824260405161093a929190611c92565b60405180910390a25050565b60008060003373ffffffffffffffffffffffffffffffffffffffff1673ffffffffffffffffffffffffffffffffffffffff1681526020019081526020016000209050808054905082106109ce576040517f08c379a00000000000000000000000000000000000000000000000000000000081526004016109c590611d07565b60405180910390fd5b60008183815481106109e3576109e2611d27565b5b906000526020600020906005020160000180546109ff906115c2565b80601f0160208091040260200160405190810160405280929190818152602001828054610a2b906115c2565b8015610a785780601f10610a4d57610100808354040283529160200191610a78565b820191906000526020600020905b815481529060010190602001808311610a5b57829003601f168201915b505050505090508160018380549050610a919190611d56565b81548110610aa257610aa1611d27565b5b9060005260206000209060050201828481548110610ac357610ac2611d27565b5b906000526020600020906005020160008201816000019081610ae59190611da0565b5060018201816001019081610afa9190611da0565b5060028201548160020155600382015481600301556004820160009054906101000a900473ffffffffffffffffffffffffffffffffffffffff168160040160006101000a81548173ffffffffffffffffffffffffffffffffffffffff021916908373ffffffffffffffffffffffffffffffffffffffff16021790555090505081805480610b8a57610b89611e88565b5b600190038181906000526020600020906005020160008082016000610baf9190610cbc565b600182016000610bbf9190610cbc565b600282016000905560038201600090556004820160006101000a81549073ffffffffffffffffffffffffffffffffffffffff02191690555050905560006001541115610c1e5760016000815480929190610c1890611eb7565b91905055505b3373ffffffffffffffffffffffffffffffffffffffff167f4f290849018eb780affafba63563006086546149769e7b527f0e61c4f282de078242604051610c66929190611ee0565b60405180910390a2505050565b60008060003373ffffffffffffffffffffffffffffffffffffffff1673ffffffffffffffffffffffffffffffffffffffff16815260200190815260200160002080549050905090565b508054610cc8906115c2565b6000825580601f10610cda5750610cf9565b601f016020900490600052602060002090810190610cf89190610cfc565b5b50565b5b80821115610d15576000816000905550600101610cfd565b5090565b6000604051905090565b600080fd5b600080fd5b600080fd5b600080fd5b6000601f19601f8301169050919050565b7f4e487b7100000000000000000000000000000000000000000000000000000000600052604160045260246000fd5b610d8082610d37565b810181811067ffffffffffffffff82111715610d9f57610d9e610d48565b5b80604052505050565b6000610db2610d19565b9050610dbe8282610d77565b919050565b600067ffffffffffffffff821115610dde57610ddd610d48565b5b610de782610d37565b9050602081019050919050565b82818337600083830152505050565b6000610e16610e1184610dc3565b610da8565b905082815260208101848484011115610e3257610e31610d32565b5b610e3d848285610df4565b509392505050565b600082601f830112610e5a57610e59610d2d565b5b8135610e6a848260208601610e03565b91505092915050565b6000819050919050565b610e8681610e73565b8114610e9157600080fd5b50565b600081359050610ea381610e7d565b92915050565b600080600060608486031215610ec257610ec1610d23565b5b600084013567ffffffffffffffff811115610ee057610edf610d28565b5b610eec86828701610e45565b935050602084013567ffffffffffffffff811115610f0d57610f0c610d28565b5b610f1986828701610e45565b9250506040610f2a86828701610e94565b9150509250925092565b6000819050919050565b610f4781610f34565b8114610f5257600080fd5b50565b600081359050610f6481610f3e565b92915050565b600073ffffffffffffffffffffffffffffffffffffffff82169050919050565b6000610f9582610f6a565b9050919050565b610fa581610f8a565b8114610fb057600080fd5b50565b600081359050610fc281610f9c565b92915050565b60008060408385031215610fdf57610fde610d23565b5b6000610fed85828601610f55565b9250506020610ffe85828601610fb3565b9150509250929050565b61101181610e73565b82525050565b600060208201905061102c6000830184611008565b92915050565b600067ffffffffffffffff82111561104d5761104c610d48565b5b602082029050602081019050919050565b600080fd5b600061107661107184611032565b610da8565b905080838252602082019050602084028301858111156110995761109861105e565b5b835b818110156110c257806110ae8882610fb3565b84526020840193505060208101905061109b565b5050509392505050565b600082601f8301126110e1576110e0610d2d565b5b81356110f1848260208601611063565b91505092915050565b600080600080600060a0868803121561111657611115610d23565b5b600061112488828901610f55565b955050602086013567ffffffffffffffff81111561114557611144610d28565b5b61115188828901610e45565b945050604061116288828901610fb3565b935050606086013567ffffffffffffffff81111561118357611182610d28565b5b61118f888289016110cc565b92505060806111a088828901610e94565b9150509295509295909350565b600081519050919050565b600082825260208201905092915050565b6000819050602082019050919050565b600081519050919050565b600082825260208201905092915050565b60005b838110156112135780820151818401526020810190506111f8565b60008484015250505050565b600061122a826111d9565b61123481856111e4565b93506112448185602086016111f5565b61124d81610d37565b840191505092915050565b61126181610e73565b82525050565b61127081610f8a565b82525050565b600060a0830160008301518482036000860152611293828261121f565b915050602083015184820360208601526112ad828261121f565b91505060408301516112c26040860182611258565b5060608301516112d56060860182611258565b5060808301516112e86080860182611267565b508091505092915050565b60006112ff8383611276565b905092915050565b6000602082019050919050565b600061131f826111ad565b61132981856111b8565b93508360208202850161133b856111c9565b8060005b85811015611377578484038952815161135885826112f3565b945061136383611307565b925060208a0199505060018101905061133f565b50829750879550505050505092915050565b600060208201905081810360008301526113a38184611314565b905092915050565b600080604083850312156113c2576113c1610d23565b5b60006113d085828601610fb3565b92505060206113e185828601610e94565b9150509250929050565b60006020828403121561140157611400610d23565b5b600061140f84828501610e94565b91505092915050565b600082825260208201905092915050565b7f4349442063616e6e6f7420626520656d70747900000000000000000000000000600082015250565b600061145f601383611418565b915061146a82611429565b602082019050919050565b6000602082019050818103600083015261148e81611452565b9050919050565b7f46696c656e616d652063616e6e6f7420626520656d7074790000000000000000600082015250565b60006114cb601883611418565b91506114d682611495565b602082019050919050565b600060208201905081810360008301526114fa816114be565b9050919050565b7f46696c652073697a65206d7573742062652067726561746572207468616e207a60008201527f65726f0000000000000000000000000000000000000000000000000000000000602082015250565b600061155d602383611418565b915061156882611501565b604082019050919050565b6000602082019050818103600083015261158c81611550565b9050919050565b7f4e487b7100000000000000000000000000000000000000000000000000000000600052602260045260246000fd5b600060028204905060018216806115da57607f821691505b6020821081036115ed576115ec611593565b5b50919050565b60008190508160005260206000209050919050565b60006020601f8301049050919050565b600082821b905092915050565b6000600883026116557fffffffffffffffffffffffffffffffffffffffffffffffffffffffffffffffff82611618565b61165f8683611618565b95508019841693508086168417925050509392505050565b6000819050919050565b600061169c61169761169284610e73565b611677565b610e73565b9050919050565b6000819050919050565b6116b683611681565b6116ca6116c2826116a3565b848454611625565b825550505050565b600090565b6116df6116d2565b6116ea8184846116ad565b505050565b5b8181101561170e576117036000826116d7565b6001810190506116f0565b5050565b601f82111561175357611724816115f3565b61172d84611608565b8101602085101561173c578190505b61175061174885611608565b8301826116ef565b50505b505050565b600082821c905092915050565b600061177660001984600802611758565b1980831691505092915050565b600061178f8383611765565b9150826002028217905092915050565b6117a8826111d9565b67ffffffffffffffff8111156117c1576117c0610d48565b5b6117cb82546115c2565b6117d6828285611712565b600060209050601f83116001811461180957600084156117f7578287015190505b6118018582611783565b865550611869565b601f198416611817866115f3565b60005b8281101561183f5784890151825560018201915060208501945060208101905061181a565b8683101561185c5784890151611858601f891682611765565b8355505b6001600288020188555050505b505050505050565b7f4e487b7100000000000000000000000000000000000000000000000000000000600052601160045260246000fd5b60006118ab82610e73565b91507fffffffffffffffffffffffffffffffffffffffffffffffffffffffffffffffff82036118dd576118dc611871565b5b600182019050919050565b60006118f3826111d9565b6118fd8185611418565b935061190d8185602086016111f5565b61191681610d37565b840191505092915050565b6000608082019050818103600083015261193b81876118e8565b9050818103602083015261194f81866118e8565b905061195e6040830185611008565b61196b6060830184611008565b95945050505050565b7f66696c65486173682063616e6e6f74206265207a65726f000000000000000000600082015250565b60006119aa601783611418565b91506119b582611974565b602082019050919050565b600060208201905081810360008301526119d98161199d565b9050919050565b7f696e76616c696420646f776e6c6f616465722061646472657373000000000000600082015250565b6000611a16601a83611418565b9150611a21826119e0565b602082019050919050565b60006020820190508181036000830152611a4581611a09565b9050919050565b7f66696c6553697a65206d757374206265203e2030000000000000000000000000600082015250565b6000611a82601483611418565b9150611a8d82611a4c565b602082019050919050565b60006020820190508181036000830152611ab181611a75565b9050919050565b7f696e76616c6964207365656b65722077616c6c65740000000000000000000000600082015250565b6000611aee601583611418565b9150611af982611ab8565b602082019050919050565b60006020820190508181036000830152611b1d81611ae1565b9050919050565b600081519050919050565b600082825260208201905092915050565b6000819050602082019050919050565b6000611b5c8383611267565b60208301905092915050565b6000602082019050919050565b6000611b8082611b24565b611b8a8185611b2f565b9350611b9583611b40565b8060005b83811015611bc6578151611bad8882611b50565b9750611bb883611b68565b925050600181019050611b99565b5085935050505092915050565b60006080820190508181036000830152611bed81876118e8565b90508181036020830152611c018186611b75565b9050611c106040830185611008565b611c1d6060830184611008565b95945050505050565b7f696e76616c69642070726f76696465722077616c6c6574000000000000000000600082015250565b6000611c5c601783611418565b9150611c6782611c26565b602082019050919050565b60006020820190508181036000830152611c8b81611c4f565b9050919050565b6000604082019050611ca76000830185611008565b611cb46020830184611008565b9392505050565b7f496e646578206f7574206f6620626f756e647300000000000000000000000000600082015250565b6000611cf1601383611418565b9150611cfc82611cbb565b602082019050919050565b60006020820190508181036000830152611d2081611ce4565b9050919050565b7f4e487b7100000000000000000000000000000000000000000000000000000000600052603260045260246000fd5b6000611d6182610e73565b9150611d6c83610e73565b9250828203905081811115611d8457611d83611871565b5b92915050565b600081549050611d99816115c2565b9050919050565b818103611dae575050611e86565b611db782611d8a565b67ffffffffffffffff811115611dd057611dcf610d48565b5b611dda82546115c2565b611de5828285611712565b6000601f831160018114611e145760008415611e02578287015490505b611e0c8582611783565b865550611e7f565b601f198416611e22876115f3565b9650611e2d866115f3565b60005b82811015611e5557848901548255600182019150600185019450602081019050611e30565b86831015611e725784890154611e6e601f891682611765565b8355505b6001600288020188555050505b5050505050505b565b7f4e487b7100000000000000000000000000000000000000000000000000000000600052603160045260246000fd5b6000611ec282610e73565b915060008203611ed557611ed4611871565b5b600182039050919050565b60006040820190508181036000830152611efa81856118e8565b9050611f096020830184611008565b939250505056fea2646970667358221220dc43a56515f9acb6b39fc094e2a90f8422b8106a03f766a5c35ec36fc01cc80c64736f6c63430008140033",
  "linkReferences": {},
  "deployedLinkReferences": {}
}